{
  "_format": "hh-sol-artifact-1",
  "contractName": "ImpactBond",
  "sourceName": "contracts/ImpactBond.sol",
  "abi": [
    {
      "inputs": [
        {
          "internalType": "address",
          "name": "initialOwner",
          "type": "address"
        }
      ],
      "stateMutability": "nonpayable",
      "type": "constructor"
    },
    {
      "inputs": [
        {
          "internalType": "address",
          "name": "sender",
          "type": "address"
        },
        {
          "internalType": "uint256",
          "name": "tokenId",
          "type": "uint256"
        },
        {
          "internalType": "address",
          "name": "owner",
          "type": "address"
        }
      ],
      "name": "ERC721IncorrectOwner",
      "type": "error"
    },
    {
      "inputs": [
        {
          "internalType": "address",
          "name": "operator",
          "type": "address"
        },
        {
          "internalType": "uint256",
          "name": "tokenId",
          "type": "uint256"
        }
      ],
      "name": "ERC721InsufficientApproval",
      "type": "error"
    },
    {
      "inputs": [
        {
          "internalType": "address",
          "name": "approver",
          "type": "address"
        }
      ],
      "name": "ERC721InvalidApprover",
      "type": "error"
    },
    {
      "inputs": [
        {
          "internalType": "address",
          "name": "operator",
          "type": "address"
        }
      ],
      "name": "ERC721InvalidOperator",
      "type": "error"
    },
    {
      "inputs": [
        {
          "internalType": "address",
          "name": "owner",
          "type": "address"
        }
      ],
      "name": "ERC721InvalidOwner",
      "type": "error"
    },
    {
      "inputs": [
        {
          "internalType": "address",
          "name": "receiver",
          "type": "address"
        }
      ],
      "name": "ERC721InvalidReceiver",
      "type": "error"
    },
    {
      "inputs": [
        {
          "internalType": "address",
          "name": "sender",
          "type": "address"
        }
      ],
      "name": "ERC721InvalidSender",
      "type": "error"
    },
    {
      "inputs": [
        {
          "internalType": "uint256",
          "name": "tokenId",
          "type": "uint256"
        }
      ],
      "name": "ERC721NonexistentToken",
      "type": "error"
    },
    {
      "inputs": [
        {
          "internalType": "address",
          "name": "owner",
          "type": "address"
        }
      ],
      "name": "OwnableInvalidOwner",
      "type": "error"
    },
    {
      "inputs": [
        {
          "internalType": "address",
          "name": "account",
          "type": "address"
        }
      ],
      "name": "OwnableUnauthorizedAccount",
      "type": "error"
    },
    {
      "anonymous": false,
      "inputs": [
        {
          "indexed": true,
          "internalType": "address",
          "name": "owner",
          "type": "address"
        },
        {
          "indexed": true,
          "internalType": "address",
          "name": "approved",
          "type": "address"
        },
        {
          "indexed": true,
          "internalType": "uint256",
          "name": "tokenId",
          "type": "uint256"
        }
      ],
      "name": "Approval",
      "type": "event"
    },
    {
      "anonymous": false,
      "inputs": [
        {
          "indexed": true,
          "internalType": "address",
          "name": "owner",
          "type": "address"
        },
        {
          "indexed": true,
          "internalType": "address",
          "name": "operator",
          "type": "address"
        },
        {
          "indexed": false,
          "internalType": "bool",
          "name": "approved",
          "type": "bool"
        }
      ],
      "name": "ApprovalForAll",
      "type": "event"
    },
    {
      "anonymous": false,
      "inputs": [
        {
          "indexed": true,
          "internalType": "address",
          "name": "investor",
          "type": "address"
        },
        {
          "indexed": true,
          "internalType": "uint256",
          "name": "tokenId",
          "type": "uint256"
        },
        {
          "indexed": false,
          "internalType": "string",
          "name": "ngoName",
          "type": "string"
        },
        {
          "indexed": false,
          "internalType": "uint256",
          "name": "amountInvested",
          "type": "uint256"
        }
      ],
      "name": "BondMinted",
      "type": "event"
    },
    {
      "anonymous": false,
      "inputs": [
        {
          "indexed": true,
          "internalType": "address",
          "name": "previousOwner",
          "type": "address"
        },
        {
          "indexed": true,
          "internalType": "address",
          "name": "newOwner",
          "type": "address"
        }
      ],
      "name": "OwnershipTransferred",
      "type": "event"
    },
    {
      "anonymous": false,
      "inputs": [
        {
          "indexed": true,
          "internalType": "address",
          "name": "from",
          "type": "address"
        },
        {
          "indexed": true,
          "internalType": "address",
          "name": "to",
          "type": "address"
        },
        {
          "indexed": true,
          "internalType": "uint256",
          "name": "tokenId",
          "type": "uint256"
        }
      ],
      "name": "Transfer",
      "type": "event"
    },
    {
      "inputs": [
        {
          "internalType": "address",
          "name": "to",
          "type": "address"
        },
        {
          "internalType": "uint256",
          "name": "tokenId",
          "type": "uint256"
        }
      ],
      "name": "approve",
      "outputs": [],
      "stateMutability": "nonpayable",
      "type": "function"
    },
    {
      "inputs": [
        {
          "internalType": "address",
          "name": "owner",
          "type": "address"
        }
      ],
      "name": "balanceOf",
      "outputs": [
        {
          "internalType": "uint256",
          "name": "",
          "type": "uint256"
        }
      ],
      "stateMutability": "view",
      "type": "function"
    },
    {
      "inputs": [
        {
          "internalType": "uint256",
          "name": "",
          "type": "uint256"
        }
      ],
      "name": "bondRecords",
      "outputs": [
        {
          "internalType": "string",
          "name": "ngoName",
          "type": "string"
        },
        {
          "internalType": "uint256",
          "name": "amountInvested",
          "type": "uint256"
        },
        {
          "internalType": "uint256",
          "name": "timestamp",
          "type": "uint256"
        }
      ],
      "stateMutability": "view",
      "type": "function"
    },
    {
      "inputs": [
        {
          "internalType": "uint256",
          "name": "tokenId",
          "type": "uint256"
        }
      ],
      "name": "getApproved",
      "outputs": [
        {
          "internalType": "address",
          "name": "",
          "type": "address"
        }
      ],
      "stateMutability": "view",
      "type": "function"
    },
    {
      "inputs": [
        {
          "internalType": "uint256",
          "name": "tokenId",
          "type": "uint256"
        }
      ],
      "name": "getBondDetails",
      "outputs": [
        {
          "internalType": "string",
          "name": "",
          "type": "string"
        },
        {
          "internalType": "uint256",
          "name": "",
          "type": "uint256"
        },
        {
          "internalType": "uint256",
          "name": "",
          "type": "uint256"
        }
      ],
      "stateMutability": "view",
      "type": "function"
    },
    {
      "inputs": [
        {
          "internalType": "address",
          "name": "owner",
          "type": "address"
        },
        {
          "internalType": "address",
          "name": "operator",
          "type": "address"
        }
      ],
      "name": "isApprovedForAll",
      "outputs": [
        {
          "internalType": "bool",
          "name": "",
          "type": "bool"
        }
      ],
      "stateMutability": "view",
      "type": "function"
    },
    {
      "inputs": [
        {
          "internalType": "address",
          "name": "investor",
          "type": "address"
        },
        {
          "internalType": "string",
          "name": "ngoName",
          "type": "string"
        },
        {
          "internalType": "uint256",
          "name": "amountInvested",
          "type": "uint256"
        }
      ],
      "name": "mintBond",
      "outputs": [],
      "stateMutability": "nonpayable",
      "type": "function"
    },
    {
      "inputs": [],
      "name": "name",
      "outputs": [
        {
          "internalType": "string",
          "name": "",
          "type": "string"
        }
      ],
      "stateMutability": "view",
      "type": "function"
    },
    {
      "inputs": [],
      "name": "owner",
      "outputs": [
        {
          "internalType": "address",
          "name": "",
          "type": "address"
        }
      ],
      "stateMutability": "view",
      "type": "function"
    },
    {
      "inputs": [
        {
          "internalType": "uint256",
          "name": "tokenId",
          "type": "uint256"
        }
      ],
      "name": "ownerOf",
      "outputs": [
        {
          "internalType": "address",
          "name": "",
          "type": "address"
        }
      ],
      "stateMutability": "view",
      "type": "function"
    },
    {
      "inputs": [],
      "name": "renounceOwnership",
      "outputs": [],
      "stateMutability": "nonpayable",
      "type": "function"
    },
    {
      "inputs": [
        {
          "internalType": "address",
          "name": "from",
          "type": "address"
        },
        {
          "internalType": "address",
          "name": "to",
          "type": "address"
        },
        {
          "internalType": "uint256",
          "name": "tokenId",
          "type": "uint256"
        }
      ],
      "name": "safeTransferFrom",
      "outputs": [],
      "stateMutability": "nonpayable",
      "type": "function"
    },
    {
      "inputs": [
        {
          "internalType": "address",
          "name": "from",
          "type": "address"
        },
        {
          "internalType": "address",
          "name": "to",
          "type": "address"
        },
        {
          "internalType": "uint256",
          "name": "tokenId",
          "type": "uint256"
        },
        {
          "internalType": "bytes",
          "name": "data",
          "type": "bytes"
        }
      ],
      "name": "safeTransferFrom",
      "outputs": [],
      "stateMutability": "nonpayable",
      "type": "function"
    },
    {
      "inputs": [
        {
          "internalType": "address",
          "name": "operator",
          "type": "address"
        },
        {
          "internalType": "bool",
          "name": "approved",
          "type": "bool"
        }
      ],
      "name": "setApprovalForAll",
      "outputs": [],
      "stateMutability": "nonpayable",
      "type": "function"
    },
    {
      "inputs": [
        {
          "internalType": "bytes4",
          "name": "interfaceId",
          "type": "bytes4"
        }
      ],
      "name": "supportsInterface",
      "outputs": [
        {
          "internalType": "bool",
          "name": "",
          "type": "bool"
        }
      ],
      "stateMutability": "view",
      "type": "function"
    },
    {
      "inputs": [],
      "name": "symbol",
      "outputs": [
        {
          "internalType": "string",
          "name": "",
          "type": "string"
        }
      ],
      "stateMutability": "view",
      "type": "function"
    },
    {
      "inputs": [
        {
          "internalType": "uint256",
          "name": "tokenId",
          "type": "uint256"
        }
      ],
      "name": "tokenURI",
      "outputs": [
        {
          "internalType": "string",
          "name": "",
          "type": "string"
        }
      ],
      "stateMutability": "view",
      "type": "function"
    },
    {
      "inputs": [
        {
          "internalType": "address",
          "name": "from",
          "type": "address"
        },
        {
          "internalType": "address",
          "name": "to",
          "type": "address"
        },
        {
          "internalType": "uint256",
          "name": "tokenId",
          "type": "uint256"
        }
      ],
      "name": "transferFrom",
      "outputs": [],
      "stateMutability": "nonpayable",
      "type": "function"
    },
    {
      "inputs": [
        {
          "internalType": "address",
          "name": "newOwner",
          "type": "address"
        }
      ],
      "name": "transferOwnership",
      "outputs": [],
      "stateMutability": "nonpayable",
      "type": "function"
    }
  ],
  "bytecode": "0x608060405234801562000010575f80fd5b5060405162002d8338038062002d8383398181016040528101906200003691906200027c565b806040518060400160405280601081526020017f5a435a5020496d7061637420426f6e64000000000000000000000000000000008152506040518060400160405280600481526020017f5a435a5000000000000000000000000000000000000000000000000000000000815250815f9081620000b3919062000510565b508060019081620000c5919062000510565b5050505f73ffffffffffffffffffffffffffffffffffffffff168173ffffffffffffffffffffffffffffffffffffffff16036200013b575f6040517f1e4fbdf700000000000000000000000000000000000000000000000000000000815260040162000132919062000605565b60405180910390fd5b6200014c816200015460201b60201c565b505062000620565b5f60065f9054906101000a900473ffffffffffffffffffffffffffffffffffffffff1690508160065f6101000a81548173ffffffffffffffffffffffffffffffffffffffff021916908373ffffffffffffffffffffffffffffffffffffffff1602179055508173ffffffffffffffffffffffffffffffffffffffff168173ffffffffffffffffffffffffffffffffffffffff167f8be0079c531659141344cd1fd0a4f28419497f9722a3daafe3b4186f6b6457e060405160405180910390a35050565b5f80fd5b5f73ffffffffffffffffffffffffffffffffffffffff82169050919050565b5f62000246826200021b565b9050919050565b62000258816200023a565b811462000263575f80fd5b50565b5f8151905062000276816200024d565b92915050565b5f6020828403121562000294576200029362000217565b5b5f620002a38482850162000266565b91505092915050565b5f81519050919050565b7f4e487b71000000000000000000000000000000000000000000000000000000005f52604160045260245ffd5b7f4e487b71000000000000000000000000000000000000000000000000000000005f52602260045260245ffd5b5f60028204905060018216806200032857607f821691505b6020821081036200033e576200033d620002e3565b5b50919050565b5f819050815f5260205f209050919050565b5f6020601f8301049050919050565b5f82821b905092915050565b5f60088302620003a27fffffffffffffffffffffffffffffffffffffffffffffffffffffffffffffffff8262000365565b620003ae868362000365565b95508019841693508086168417925050509392505050565b5f819050919050565b5f819050919050565b5f620003f8620003f2620003ec84620003c6565b620003cf565b620003c6565b9050919050565b5f819050919050565b6200041383620003d8565b6200042b6200042282620003ff565b84845462000371565b825550505050565b5f90565b6200044162000433565b6200044e81848462000408565b505050565b5b818110156200047557620004695f8262000437565b60018101905062000454565b5050565b601f821115620004c4576200048e8162000344565b620004998462000356565b81016020851015620004a9578190505b620004c1620004b88562000356565b83018262000453565b50505b505050565b5f82821c905092915050565b5f620004e65f1984600802620004c9565b1980831691505092915050565b5f620005008383620004d5565b9150826002028217905092915050565b6200051b82620002ac565b67ffffffffffffffff811115620005375762000536620002b6565b5b62000543825462000310565b6200055082828562000479565b5f60209050601f83116001811462000586575f841562000571578287015190505b6200057d8582620004f3565b865550620005ec565b601f198416620005968662000344565b5f5b82811015620005bf5784890151825560018201915060208501945060208101905062000598565b86831015620005df5784890151620005db601f891682620004d5565b8355505b6001600288020188555050505b505050505050565b620005ff816200023a565b82525050565b5f6020820190506200061a5f830184620005f4565b92915050565b612755806200062e5f395ff3fe608060405234801561000f575f80fd5b506004361061011f575f3560e01c806370a08231116100ab578063a22cb4651161006f578063a22cb4651461031b578063b88d4fde14610337578063c87b56dd14610353578063e985e9c514610383578063f2fde38b146103b35761011f565b806370a0823114610273578063715018a6146102a35780638da5cb5b146102ad57806395d89b41146102cb57806397e86a6e146102e95761011f565b8063095ea7b3116100f2578063095ea7b3146101d357806323b872dd146101ef57806342842e0e1461020b5780636352211e146102275780636a415a7b146102575761011f565b806301ffc9a7146101235780630436f2f61461015357806306fdde0314610185578063081812fc146101a3575b5f80fd5b61013d60048036038101906101389190611b92565b6103cf565b60405161014a9190611bd7565b60405180910390f35b61016d60048036038101906101689190611c23565b6104b0565b60405161017c93929190611ce7565b60405180910390f35b61018d610592565b60405161019a9190611d23565b60405180910390f35b6101bd60048036038101906101b89190611c23565b610621565b6040516101ca9190611d82565b60405180910390f35b6101ed60048036038101906101e89190611dc5565b61063c565b005b61020960048036038101906102049190611e03565b610652565b005b61022560048036038101906102209190611e03565b610751565b005b610241600480360381019061023c9190611c23565b610770565b60405161024e9190611d82565b60405180910390f35b610271600480360381019061026c9190611f7f565b610781565b005b61028d60048036038101906102889190611feb565b610852565b60405161029a9190612016565b60405180910390f35b6102ab610908565b005b6102b561091b565b6040516102c29190611d82565b60405180910390f35b6102d3610943565b6040516102e09190611d23565b60405180910390f35b61030360048036038101906102fe9190611c23565b6109d3565b60405161031293929190611ce7565b60405180910390f35b61033560048036038101906103309190612059565b610a7f565b005b610351600480360381019061034c9190612135565b610a95565b005b61036d60048036038101906103689190611c23565b610aba565b60405161037a9190611d23565b60405180910390f35b61039d600480360381019061039891906121b5565b610b20565b6040516103aa9190611bd7565b60405180910390f35b6103cd60048036038101906103c89190611feb565b610bae565b005b5f7f80ac58cd000000000000000000000000000000000000000000000000000000007bffffffffffffffffffffffffffffffffffffffffffffffffffffffff1916827bffffffffffffffffffffffffffffffffffffffffffffffffffffffff1916148061049957507f5b5e139f000000000000000000000000000000000000000000000000000000007bffffffffffffffffffffffffffffffffffffffffffffffffffffffff1916827bffffffffffffffffffffffffffffffffffffffffffffffffffffffff1916145b806104a957506104a882610c32565b5b9050919050565b60605f805f60085f8681526020019081526020015f206040518060600160405290815f820180546104e090612220565b80601f016020809104026020016040519081016040528092919081815260200182805461050c90612220565b80156105575780601f1061052e57610100808354040283529160200191610557565b820191905f5260205f20905b81548152906001019060200180831161053a57829003601f168201915b50505050508152602001600182015481526020016002820154815250509050805f015181602001518260400151935093509350509193909250565b60605f80546105a090612220565b80601f01602080910402602001604051908101604052809291908181526020018280546105cc90612220565b80156106175780601f106105ee57610100808354040283529160200191610617565b820191905f5260205f20905b8154815290600101906020018083116105fa57829003601f168201915b5050505050905090565b5f61062b82610c9b565b5061063582610d21565b9050919050565b61064e8282610649610d5a565b610d61565b5050565b5f73ffffffffffffffffffffffffffffffffffffffff168273ffffffffffffffffffffffffffffffffffffffff16036106c2575f6040517f64a0ae920000000000000000000000000000000000000000000000000000000081526004016106b99190611d82565b60405180910390fd5b5f6106d583836106d0610d5a565b610d73565b90508373ffffffffffffffffffffffffffffffffffffffff168173ffffffffffffffffffffffffffffffffffffffff161461074b578382826040517f64283d7b00000000000000000000000000000000000000000000000000000000815260040161074293929190612250565b60405180910390fd5b50505050565b61076b83838360405180602001604052805f815250610a95565b505050565b5f61077a82610c9b565b9050919050565b5f60075f815480929190610794906122b2565b9190505590506107a48482610f7e565b60405180606001604052808481526020018381526020014281525060085f8381526020019081526020015f205f820151815f0190816107e39190612496565b506020820151816001015560408201518160020155905050808473ffffffffffffffffffffffffffffffffffffffff167f88249cc80e9a9d5aeaf8686e424b4392c19f38565664e4198e1cdb82c645aba98585604051610844929190612565565b60405180910390a350505050565b5f8073ffffffffffffffffffffffffffffffffffffffff168273ffffffffffffffffffffffffffffffffffffffff16036108c3575f6040517f89c62b640000000000000000000000000000000000000000000000000000000081526004016108ba9190611d82565b60405180910390fd5b60035f8373ffffffffffffffffffffffffffffffffffffffff1673ffffffffffffffffffffffffffffffffffffffff1681526020019081526020015f20549050919050565b610910610f9b565b6109195f611022565b565b5f60065f9054906101000a900473ffffffffffffffffffffffffffffffffffffffff16905090565b60606001805461095290612220565b80601f016020809104026020016040519081016040528092919081815260200182805461097e90612220565b80156109c95780601f106109a0576101008083540402835291602001916109c9565b820191905f5260205f20905b8154815290600101906020018083116109ac57829003601f168201915b5050505050905090565b6008602052805f5260405f205f91509050805f0180546109f290612220565b80601f0160208091040260200160405190810160405280929190818152602001828054610a1e90612220565b8015610a695780601f10610a4057610100808354040283529160200191610a69565b820191905f5260205f20905b815481529060010190602001808311610a4c57829003601f168201915b5050505050908060010154908060020154905083565b610a91610a8a610d5a565b83836110e5565b5050565b610aa0848484610652565b610ab4610aab610d5a565b858585856112be565b50505050565b6060610ac582610c9b565b505f610acf61146a565b90505f815111610aed5760405180602001604052805f815250610b18565b80610af784611480565b604051602001610b089291906125cd565b6040516020818303038152906040525b915050919050565b5f60055f8473ffffffffffffffffffffffffffffffffffffffff1673ffffffffffffffffffffffffffffffffffffffff1681526020019081526020015f205f8373ffffffffffffffffffffffffffffffffffffffff1673ffffffffffffffffffffffffffffffffffffffff1681526020019081526020015f205f9054906101000a900460ff16905092915050565b610bb6610f9b565b5f73ffffffffffffffffffffffffffffffffffffffff168173ffffffffffffffffffffffffffffffffffffffff1603610c26575f6040517f1e4fbdf7000000000000000000000000000000000000000000000000000000008152600401610c1d9190611d82565b60405180910390fd5b610c2f81611022565b50565b5f7f01ffc9a7000000000000000000000000000000000000000000000000000000007bffffffffffffffffffffffffffffffffffffffffffffffffffffffff1916827bffffffffffffffffffffffffffffffffffffffffffffffffffffffff1916149050919050565b5f80610ca68361154a565b90505f73ffffffffffffffffffffffffffffffffffffffff168173ffffffffffffffffffffffffffffffffffffffff1603610d1857826040517f7e273289000000000000000000000000000000000000000000000000000000008152600401610d0f9190612016565b60405180910390fd5b80915050919050565b5f60045f8381526020019081526020015f205f9054906101000a900473ffffffffffffffffffffffffffffffffffffffff169050919050565b5f33905090565b610d6e8383836001611583565b505050565b5f80610d7e8461154a565b90505f73ffffffffffffffffffffffffffffffffffffffff168373ffffffffffffffffffffffffffffffffffffffff1614610dbf57610dbe818486611742565b5b5f73ffffffffffffffffffffffffffffffffffffffff168173ffffffffffffffffffffffffffffffffffffffff1614610e4a57610dfe5f855f80611583565b600160035f8373ffffffffffffffffffffffffffffffffffffffff1673ffffffffffffffffffffffffffffffffffffffff1681526020019081526020015f205f82825403925050819055505b5f73ffffffffffffffffffffffffffffffffffffffff168573ffffffffffffffffffffffffffffffffffffffff1614610ec957600160035f8773ffffffffffffffffffffffffffffffffffffffff1673ffffffffffffffffffffffffffffffffffffffff1681526020019081526020015f205f82825401925050819055505b8460025f8681526020019081526020015f205f6101000a81548173ffffffffffffffffffffffffffffffffffffffff021916908373ffffffffffffffffffffffffffffffffffffffff160217905550838573ffffffffffffffffffffffffffffffffffffffff168273ffffffffffffffffffffffffffffffffffffffff167fddf252ad1be2c89b69c2b068fc378daa952ba7f163c4a11628f55a4df523b3ef60405160405180910390a4809150509392505050565b610f97828260405180602001604052805f815250611805565b5050565b610fa3610d5a565b73ffffffffffffffffffffffffffffffffffffffff16610fc161091b565b73ffffffffffffffffffffffffffffffffffffffff161461102057610fe4610d5a565b6040517f118cdaa70000000000000000000000000000000000000000000000000000000081526004016110179190611d82565b60405180910390fd5b565b5f60065f9054906101000a900473ffffffffffffffffffffffffffffffffffffffff1690508160065f6101000a81548173ffffffffffffffffffffffffffffffffffffffff021916908373ffffffffffffffffffffffffffffffffffffffff1602179055508173ffffffffffffffffffffffffffffffffffffffff168173ffffffffffffffffffffffffffffffffffffffff167f8be0079c531659141344cd1fd0a4f28419497f9722a3daafe3b4186f6b6457e060405160405180910390a35050565b5f73ffffffffffffffffffffffffffffffffffffffff168373ffffffffffffffffffffffffffffffffffffffff1603611155575f6040517fa9fbf51f00000000000000000000000000000000000000000000000000000000815260040161114c9190611d82565b60405180910390fd5b5f73ffffffffffffffffffffffffffffffffffffffff168273ffffffffffffffffffffffffffffffffffffffff16036111c557816040517f5b08ba180000000000000000000000000000000000000000000000000000000081526004016111bc9190611d82565b60405180910390fd5b8060055f8573ffffffffffffffffffffffffffffffffffffffff1673ffffffffffffffffffffffffffffffffffffffff1681526020019081526020015f205f8473ffffffffffffffffffffffffffffffffffffffff1673ffffffffffffffffffffffffffffffffffffffff1681526020019081526020015f205f6101000a81548160ff0219169083151502179055508173ffffffffffffffffffffffffffffffffffffffff168373ffffffffffffffffffffffffffffffffffffffff167f17307eab39ab6107e8899845ad3d59bd9653f200f220920489ca2b5937696c31836040516112b19190611bd7565b60405180910390a3505050565b5f8373ffffffffffffffffffffffffffffffffffffffff163b1115611463578273ffffffffffffffffffffffffffffffffffffffff1663150b7a02868685856040518563ffffffff1660e01b815260040161131c9493929190612642565b6020604051808303815f875af192505050801561135757506040513d601f19601f8201168201806040525081019061135491906126a0565b60015b6113d8573d805f8114611385576040519150601f19603f3d011682016040523d82523d5f602084013e61138a565b606091505b505f8151036113d057836040517f64a0ae920000000000000000000000000000000000000000000000000000000081526004016113c79190611d82565b60405180910390fd5b805160208201fd5b63150b7a0260e01b7bffffffffffffffffffffffffffffffffffffffffffffffffffffffff1916817bffffffffffffffffffffffffffffffffffffffffffffffffffffffff19161461146157836040517f64a0ae920000000000000000000000000000000000000000000000000000000081526004016114589190611d82565b60405180910390fd5b505b5050505050565b606060405180602001604052805f815250905090565b60605f600161148e84611828565b0190505f8167ffffffffffffffff8111156114ac576114ab611e5b565b5b6040519080825280601f01601f1916602001820160405280156114de5781602001600182028036833780820191505090505b5090505f82602083010190505b60011561153f578080600190039150507f3031323334353637383961626364656600000000000000000000000000000000600a86061a8153600a8581611534576115336126cb565b5b0494505f85036114eb575b819350505050919050565b5f60025f8381526020019081526020015f205f9054906101000a900473ffffffffffffffffffffffffffffffffffffffff169050919050565b80806115bb57505f73ffffffffffffffffffffffffffffffffffffffff168273ffffffffffffffffffffffffffffffffffffffff1614155b156116ed575f6115ca84610c9b565b90505f73ffffffffffffffffffffffffffffffffffffffff168373ffffffffffffffffffffffffffffffffffffffff161415801561163457508273ffffffffffffffffffffffffffffffffffffffff168173ffffffffffffffffffffffffffffffffffffffff1614155b801561164757506116458184610b20565b155b1561168957826040517fa9fbf51f0000000000000000000000000000000000000000000000000000000081526004016116809190611d82565b60405180910390fd5b81156116eb57838573ffffffffffffffffffffffffffffffffffffffff168273ffffffffffffffffffffffffffffffffffffffff167f8c5be1e5ebec7d5bd14f71427d1e84f3dd0314c0f7b2291e5b200ac8c7c3b92560405160405180910390a45b505b8360045f8581526020019081526020015f205f6101000a81548173ffffffffffffffffffffffffffffffffffffffff021916908373ffffffffffffffffffffffffffffffffffffffff16021790555050505050565b61174d838383611979565b611800575f73ffffffffffffffffffffffffffffffffffffffff168373ffffffffffffffffffffffffffffffffffffffff16036117c157806040517f7e2732890000000000000000000000000000000000000000000000000000000081526004016117b89190612016565b60405180910390fd5b81816040517f177e802f0000000000000000000000000000000000000000000000000000000081526004016117f79291906126f8565b60405180910390fd5b505050565b61180f8383611a39565b61182361181a610d5a565b5f8585856112be565b505050565b5f805f90507a184f03e93ff9f4daa797ed6e38ed64bf6a1f0100000000000000008310611884577a184f03e93ff9f4daa797ed6e38ed64bf6a1f010000000000000000838161187a576118796126cb565b5b0492506040810190505b6d04ee2d6d415b85acef810000000083106118c1576d04ee2d6d415b85acef810000000083816118b7576118b66126cb565b5b0492506020810190505b662386f26fc1000083106118f057662386f26fc1000083816118e6576118e56126cb565b5b0492506010810190505b6305f5e1008310611919576305f5e100838161190f5761190e6126cb565b5b0492506008810190505b612710831061193e576127108381611934576119336126cb565b5b0492506004810190505b606483106119615760648381611957576119566126cb565b5b0492506002810190505b600a8310611970576001810190505b80915050919050565b5f8073ffffffffffffffffffffffffffffffffffffffff168373ffffffffffffffffffffffffffffffffffffffff1614158015611a3057508273ffffffffffffffffffffffffffffffffffffffff168473ffffffffffffffffffffffffffffffffffffffff1614806119f157506119f08484610b20565b5b80611a2f57508273ffffffffffffffffffffffffffffffffffffffff16611a1783610d21565b73ffffffffffffffffffffffffffffffffffffffff16145b5b90509392505050565b5f73ffffffffffffffffffffffffffffffffffffffff168273ffffffffffffffffffffffffffffffffffffffff1603611aa9575f6040517f64a0ae92000000000000000000000000000000000000000000000000000000008152600401611aa09190611d82565b60405180910390fd5b5f611ab583835f610d73565b90505f73ffffffffffffffffffffffffffffffffffffffff168173ffffffffffffffffffffffffffffffffffffffff1614611b27575f6040517f73c6ac6e000000000000000000000000000000000000000000000000000000008152600401611b1e9190611d82565b60405180910390fd5b505050565b5f604051905090565b5f80fd5b5f80fd5b5f7fffffffff0000000000000000000000000000000000000000000000000000000082169050919050565b611b7181611b3d565b8114611b7b575f80fd5b50565b5f81359050611b8c81611b68565b92915050565b5f60208284031215611ba757611ba6611b35565b5b5f611bb484828501611b7e565b91505092915050565b5f8115159050919050565b611bd181611bbd565b82525050565b5f602082019050611bea5f830184611bc8565b92915050565b5f819050919050565b611c0281611bf0565b8114611c0c575f80fd5b50565b5f81359050611c1d81611bf9565b92915050565b5f60208284031215611c3857611c37611b35565b5b5f611c4584828501611c0f565b91505092915050565b5f81519050919050565b5f82825260208201905092915050565b5f5b83811015611c85578082015181840152602081019050611c6a565b5f8484015250505050565b5f601f19601f8301169050919050565b5f611caa82611c4e565b611cb48185611c58565b9350611cc4818560208601611c68565b611ccd81611c90565b840191505092915050565b611ce181611bf0565b82525050565b5f6060820190508181035f830152611cff8186611ca0565b9050611d0e6020830185611cd8565b611d1b6040830184611cd8565b949350505050565b5f6020820190508181035f830152611d3b8184611ca0565b905092915050565b5f73ffffffffffffffffffffffffffffffffffffffff82169050919050565b5f611d6c82611d43565b9050919050565b611d7c81611d62565b82525050565b5f602082019050611d955f830184611d73565b92915050565b611da481611d62565b8114611dae575f80fd5b50565b5f81359050611dbf81611d9b565b92915050565b5f8060408385031215611ddb57611dda611b35565b5b5f611de885828601611db1565b9250506020611df985828601611c0f565b9150509250929050565b5f805f60608486031215611e1a57611e19611b35565b5b5f611e2786828701611db1565b9350506020611e3886828701611db1565b9250506040611e4986828701611c0f565b9150509250925092565b5f80fd5b5f80fd5b7f4e487b71000000000000000000000000000000000000000000000000000000005f52604160045260245ffd5b611e9182611c90565b810181811067ffffffffffffffff82111715611eb057611eaf611e5b565b5b80604052505050565b5f611ec2611b2c565b9050611ece8282611e88565b919050565b5f67ffffffffffffffff821115611eed57611eec611e5b565b5b611ef682611c90565b9050602081019050919050565b828183375f83830152505050565b5f611f23611f1e84611ed3565b611eb9565b905082815260208101848484011115611f3f57611f3e611e57565b5b611f4a848285611f03565b509392505050565b5f82601f830112611f6657611f65611e53565b5b8135611f76848260208601611f11565b91505092915050565b5f805f60608486031215611f9657611f95611b35565b5b5f611fa386828701611db1565b935050602084013567ffffffffffffffff811115611fc457611fc3611b39565b5b611fd086828701611f52565b9250506040611fe186828701611c0f565b9150509250925092565b5f6020828403121561200057611fff611b35565b5b5f61200d84828501611db1565b91505092915050565b5f6020820190506120295f830184611cd8565b92915050565b61203881611bbd565b8114612042575f80fd5b50565b5f813590506120538161202f565b92915050565b5f806040838503121561206f5761206e611b35565b5b5f61207c85828601611db1565b925050602061208d85828601612045565b9150509250929050565b5f67ffffffffffffffff8211156120b1576120b0611e5b565b5b6120ba82611c90565b9050602081019050919050565b5f6120d96120d484612097565b611eb9565b9050828152602081018484840111156120f5576120f4611e57565b5b612100848285611f03565b509392505050565b5f82601f83011261211c5761211b611e53565b5b813561212c8482602086016120c7565b91505092915050565b5f805f806080858703121561214d5761214c611b35565b5b5f61215a87828801611db1565b945050602061216b87828801611db1565b935050604061217c87828801611c0f565b925050606085013567ffffffffffffffff81111561219d5761219c611b39565b5b6121a987828801612108565b91505092959194509250565b5f80604083850312156121cb576121ca611b35565b5b5f6121d885828601611db1565b92505060206121e985828601611db1565b9150509250929050565b7f4e487b71000000000000000000000000000000000000000000000000000000005f52602260045260245ffd5b5f600282049050600182168061223757607f821691505b60208210810361224a576122496121f3565b5b50919050565b5f6060820190506122635f830186611d73565b6122706020830185611cd8565b61227d6040830184611d73565b949350505050565b7f4e487b71000000000000000000000000000000000000000000000000000000005f52601160045260245ffd5b5f6122bc82611bf0565b91507fffffffffffffffffffffffffffffffffffffffffffffffffffffffffffffffff82036122ee576122ed612285565b5b600182019050919050565b5f819050815f5260205f209050919050565b5f6020601f8301049050919050565b5f82821b905092915050565b5f600883026123557fffffffffffffffffffffffffffffffffffffffffffffffffffffffffffffffff8261231a565b61235f868361231a565b95508019841693508086168417925050509392505050565b5f819050919050565b5f61239a61239561239084611bf0565b612377565b611bf0565b9050919050565b5f819050919050565b6123b383612380565b6123c76123bf826123a1565b848454612326565b825550505050565b5f90565b6123db6123cf565b6123e68184846123aa565b505050565b5b81811015612409576123fe5f826123d3565b6001810190506123ec565b5050565b601f82111561244e5761241f816122f9565b6124288461230b565b81016020851015612437578190505b61244b6124438561230b565b8301826123eb565b50505b505050565b5f82821c905092915050565b5f61246e5f1984600802612453565b1980831691505092915050565b5f612486838361245f565b9150826002028217905092915050565b61249f82611c4e565b67ffffffffffffffff8111156124b8576124b7611e5b565b5b6124c28254612220565b6124cd82828561240d565b5f60209050601f8311600181146124fe575f84156124ec578287015190505b6124f6858261247b565b86555061255d565b601f19841661250c866122f9565b5f5b828110156125335784890151825560018201915060208501945060208101905061250e565b86831015612550578489015161254c601f89168261245f565b8355505b6001600288020188555050505b505050505050565b5f6040820190508181035f83015261257d8185611ca0565b905061258c6020830184611cd8565b9392505050565b5f81905092915050565b5f6125a782611c4e565b6125b18185612593565b93506125c1818560208601611c68565b80840191505092915050565b5f6125d8828561259d565b91506125e4828461259d565b91508190509392505050565b5f81519050919050565b5f82825260208201905092915050565b5f612614826125f0565b61261e81856125fa565b935061262e818560208601611c68565b61263781611c90565b840191505092915050565b5f6080820190506126555f830187611d73565b6126626020830186611d73565b61266f6040830185611cd8565b8181036060830152612681818461260a565b905095945050505050565b5f8151905061269a81611b68565b92915050565b5f602082840312156126b5576126b4611b35565b5b5f6126c28482850161268c565b91505092915050565b7f4e487b71000000000000000000000000000000000000000000000000000000005f52601260045260245ffd5b5f60408201905061270b5f830185611d73565b6127186020830184611cd8565b939250505056fea26469706673582212200dad549e276a946d8d1c1273c33de652be9b2a165d6e7ee4ab9162df5e2cb44864736f6c63430008180033",
  "linkReferences": {},
  "deployedLinkReferences": {}
}